{
  "transactions": [
    {
      "hash": "0x1eb2a1117b016855beb079695affe0269bfb2b5e74ded537d82d35da58291984",
      "transactionType": "CALL",
      "contractName": null,
      "contractAddress": "0xf4648423ac6b3f6328018c49b2102f4e9ba6d800",
      "function": "setUrl(string)",
      "arguments": [
        "https://beta.villa.cash/api/ens/resolve"
      ],
      "transaction": {
        "from": "0x94e182da81ecca26d6ce6b29d99a460c11990725",
        "to": "0xf4648423ac6b3f6328018c49b2102f4e9ba6d800",
        "gas": "0x11d26",
        "value": "0x0",
        "input": "0x252498a20000000000000000000000000000000000000000000000000000000000000020000000000000000000000000000000000000000000000000000000000000002768747470733a2f2f626574612e76696c6c612e636173682f6170692f656e732f7265736f6c766500000000000000000000000000000000000000000000000000",
        "nonce": "0x5",
        "chainId": "0x14a34"
      },
      "additionalContracts": [],
      "isFixedGasLimit": false
    }
  ],
  "receipts": [
    {
      "status": "0x1",
      "cumulativeGasUsed": "0x99f9cb",
      "logs": [
        {
          "address": "0xf4648423ac6b3f6328018c49b2102f4e9ba6d800",
          "topics": [
            "0x3e9d50b77f6b3241decc60428deba7d73fe3f243bc2b0940e6d188cf9b69d0a4"
          ],
          "data": "0x000000000000000000000000000000000000000000000000000000000000004000000000000000000000000000000000000000000000000000000000000000a0000000000000000000000000000000000000000000000000000000000000002268747470733a2f2f6170692e76696c6c612e636173682f656e732f7265736f6c7665000000000000000000000000000000000000000000000000000000000000000000000000000000000000000000000000000000000000000000000000002768747470733a2f2f626574612e76696c6c612e636173682f6170692f656e732f7265736f6c766500000000000000000000000000000000000000000000000000",
          "blockHash": "0xc34d3e552f0da299901ac4f2a7420d1bdf3d9e89fe99ea91297afd479f865146",
          "blockNumber": "0x2257d1d",
          "blockTimestamp": "0x695e591a",
          "transactionHash": "0x1eb2a1117b016855beb079695affe0269bfb2b5e74ded537d82d35da58291984",
          "transactionIndex": "0x15",
          "logIndex": "0x67",
          "removed": false
        }
      ],
      "logsBloom": "0x00000000000000000000000000200000000000000000000000000800000000001000000000000000000000000000000000004000000000000000000000000000000000000000000000000000000000000000000000000000000000000000000000000000000000000000000000000000000000000000000000000000000000000000000000000000000000040000000000000000000000000000000000000000000000000000000000000000000000000000020000000000000000000000000000000000000000000000000000000000000000000000000000000000000000000000000000000000000000000000000000000000000000000000000000000000",
      "type": "0x2",
      "transactionHash": "0x1eb2a1117b016855beb079695affe0269bfb2b5e74ded537d82d35da58291984",
      "transactionIndex": "0x15",
      "blockHash": "0xc34d3e552f0da299901ac4f2a7420d1bdf3d9e89fe99ea91297afd479f865146",
      "blockNumber": "0x2257d1d",
      "gasUsed": "0xc2fa",
      "effectiveGasPrice": "0x124f80",
      "blobGasUsed": "0x8130",
      "from": "0x94e182da81ecca26d6ce6b29d99a460c11990725",
      "to": "0xf4648423ac6b3f6328018c49b2102f4e9ba6d800",
      "contractAddress": null,
      "daFootprintGasScalar": "0x138",
      "l1BaseFeeScalar": "0x44d",
      "l1BlobBaseFee": "0x1",
      "l1BlobBaseFeeScalar": "0xa118b",
      "l1Fee": "0xa6",
      "l1GasPrice": "0xc",
      "l1GasUsed": "0x6a4"
    }
  ],
  "libraries": [],
  "pending": [],
  "returns": {},
  "timestamp": 1767790873847,
  "chain": 84532,
  "commit": "ad87d82"
}